:100000000C9462000C948A000C948A000C948A0070
:100010000C948A000C948A000C948A000C9422059B
:100020000C948A000C948A000C948A000C948A0028
:100030000C948A000C948A000C948A000C948A0018
:100040000C9480040C948A000C94F0040C94CA0460
:100050000C948A000C948A000C948A000C948A00F8
:100060000C948A000C948A00000000080002010031
:100070000003040700000000000000000000000072
:10008000240027002A000000000023002600290089
:1000900000000000250028002B00040404040404D0
:1000A0000404020202020202030303030303010227
:1000B00004081020408001020408102001020408F6
:1000C0001020470511241FBECFEFD8E0DEBFCDBF03
:1000D00011E0A0E0B1E0EEE5F3E102C005900D9281
:1000E000A631B107D9F721E0A6E1B1E001C01D9228
:1000F000A53EB207E1F710E0C2E6D0E004C02197C8
:10010000FE010E94A209C136D107C9F70E94D40599
:100110000C94AD090C940000CF92DF92EF92FF9205
:10012000CF93DF93B091C701882311F0AB2F01C0AB
:10013000A0E08091C80190E0880F991F8A579F4FD7
:10014000C090CD01D090CE01E090CF01F090D001D1
:1001500020E030E0FC01C591D491E881EB23A901B6
:1001600060E070E0EA130CC02F5F3F4F4C155D0557
:100170006E057F0578F33FEF2FEF8FEF9FEF03C002
:10018000322F252FCB01632F722FDF91CF91FF905C
:10019000EF90DF90CF900895833081F028F4813084
:1001A00099F08230A1F008958730A9F08830B9F035
:1001B0008430D1F4809180008F7D03C080918000D5
:1001C0008F7780938000089584B58F7702C084B5BF
:1001D0008F7D84BD08958091B0008F7703C080919A
:1001E000B0008F7D8093B0000895CF93DF93282FC8
:1001F00030E0F901E859FF4F8491F901E255FF4FD2
:10020000D491F901E656FF4FC491CC2391F08111AE
:100210000E94CC00EC2FF0E0EE0FFF1FEA57FF4FDB
:10022000A591B491EC91ED2381E090E021F480E080
:1002300002C080E090E0DF91CF910895CF93DF93EB
:1002400090E0FC01E255FF4F2491FC01E656FF4F80
:100250008491882361F190E0880F991FFC01E45894
:10026000FF4FC591D491FC01E057FF4FA591B49188
:10027000611109C09FB7F8948881209582238883F3
:10028000EC912E230BC0623061F49FB7F894888103
:10029000322F309583238883EC912E2B2C939FBF94
:1002A00006C08FB7F894E8812E2B28838FBFDF918B
:1002B000CF9108953FB7F89480911B0190911C0154
:1002C000A0911D01B0911E0126B5A89B05C02F3F2E
:1002D00019F00196A11DB11D3FBFBA2FA92F982F6C
:1002E0008827820F911DA11DB11DBC01CD0142E0E7
:1002F000660F771F881F991F4A95D1F708958F922F
:100300009F92AF92BF92CF92DF92EF92FF926B01DA
:100310007C010E945A014B015C01C114D104E1042B
:10032000F104F1F00E945A01DC01CB01881999090E
:10033000AA09BB09883E9340A105B10570F321E0ED
:10034000C21AD108E108F10888EE880E83E0981EF1
:10035000A11CB11CC114D104E104F10419F7DDCFD3
:10036000FF90EF90DF90CF90BF90AF909F908F90D5
:100370000895CF92DF92EF92FF920F931F93CF9346
:10038000DF93CDB7DEB7C054D1400FB6F894DEBFCF
:100390000FBECDBF2FB7F89480911F01909120011F
:1003A000A0912101B09122012FBF4091C90150912C
:1003B000CA016091CB017091CC018C019D01041B9D
:1003C000150B260B370BB901A801403D57406105BD
:1003D000710518F48091D101E8C08093C901909310
:1003E000CA01A093CB01B093CC011092C40110922A
:1003F000C3011092C2011092C1011092C00162E0CB
:100400008091C5010E941E0161E070E080E090E0F3
:100410000E947F0161E08091C5010E941E01209130
:10042000C50130E0F901E859FF4F8491F901E25527
:10043000FF4F0491F901E656FF4F1491112391F0FB
:1004400081110E94CC00E12FF0E0EE0FFF1FE0577A
:10045000FF4FA591B4919FB7F8948C910095082314
:100460000C939FBF8091C6018551823028F48BE2A6
:1004700091E10197F1F706C064E170E080E090E05F
:100480000E947F0162E08091C5010E941E0180915F
:10049000D20190E08230910538F0880F991F880FC3
:1004A000991F05970197F1F7F89480E00E948C005E
:1004B0006F3F7F4F8F4F9F4F21F41092D10178945F
:1004C00041C081E00E948C006F3F7F4F8F4F9F4F54
:1004D000A1F38E010F5F1F4F6E018FEBC81A8EEFD5
:1004E000D80A780180E00E948C00F7016083718354
:1004F0008283938381E00E948C00F701648375837B
:1005000086839783F8E0EF0EF11CEC14FD0451F79D
:10051000789420E030E0F801C080D180E280F38060
:100520004481558166817781FFEFCF16DF06EF06A4
:10053000FF0631F04F3F8FEF58076807780721F427
:100540001092D10180E031C0F90183E0F595E79583
:100550008A95E1F7E054FE4F8081880FC416D506D6
:10056000E606F70608F4816080832F5F3F4F085F3F
:100570001F4F2832310579F62091C40130E04091B7
:10058000C0018091C10190E0840F911D4091C20192
:10059000840F911D4091C301840F911D9927281745
:1005A000390771F681E08093D101C05CDE4F0FB650
:1005B000F894DEBF0FBECDBFDF91CF911F910F9199
:1005C000FF90EF90DF90CF900895CF92DF92EF925F
:1005D000FF920F931F93CF93DF936C017A018B01EE
:1005E000C0E0D0E0CE15DF0581F0D8016D918D011E
:1005F000D601ED91FC910190F081E02DC6010995A5
:10060000892B11F02196EECF7E01C701DF91CF91AA
:100610001F910F91FF90EF90DF90CF900895089574
:1006200080E090E00895FC01538D448D252F30E04B
:10063000842F90E0821B930B541710F0CF960895EF
:1006400001970895FC01918D828D981761F0828D3C
:10065000DF01A80FB11D5D968C91928D9F5F9F73F6
:10066000928F90E008958FEF9FEF0895FC01918D98
:10067000828D981731F0828DE80FF11D858D90E005
:1006800008958FEF9FEF0895FC01918D228D892FA2
:1006900090E0805C9F4F821B91098F73992708958A
:1006A00083E291E00E94440321E0892B09F420E0D9
:1006B000822F0895FC01848DDF01A80FB11DA35A7C
:1006C000BF4F2C91848D90E001968F739927848F72
:1006D000A689B7892C93A089B1898C918370806495
:1006E0008C93938D848D981306C00288F389E02D36
:1006F00080818F7D80830895EF92FF920F931F93E7
:10070000CF93DF93EC0181E0888F9B8D8C8D9813C4
:1007100005C0E889F989808185FD26C0F62E0B8DFC
:1007200010E00F5F1F4F0F731127E02E8C8DE81222
:100730000CC00FB607FCFACFE889F989808185FFE4
:10074000F5CFCE010E945A03F1CF8B8DFE01E80F49
:10075000F11DE35AFF4FF0829FB7F8940B8FEA899F
:10076000FB89808180620AC09FB7F894EE89FF8977
:100770006083E889F98980818370806480839FBF6A
:1007800081E090E0DF91CF911F910F91FF90EF906A
:100790000895CF93DF93EC01888D8823C9F0EA890F
:1007A000FB89808185FD05C0A889B9898C9186FD6A
:1007B0000FC00FB607FCF5CF808185FFF2CFA88967
:1007C000B9898C9185FFEDCFCE010E945A03E7CF06
:1007D000DF91CF91089580E090E0892B29F00E946D
:1007E000500381110C94000008958F929F92AF9254
:1007F000BF920F931F93CF93DF93CDB7DEB7A1972F
:100800000FB6F894DEBF0FBECDBF19A2423008F478
:100810004AE08E010F5D1F4F842E912CA12CB12C2C
:10082000A50194010E948009E62FB901CA01015077
:100830001109EA3014F4E05D01C0E95CD801EC93E1
:10084000232B242B252B61F70115110571F0F801DD
:1008500001900020E9F73197AF01401B510BB8011F
:1008600083E291E00E94E50202C080E090E0A19660
:100870000FB6F894DEBF0FBECDBFDF91CF911F91B1
:100880000F91BF90AF909F908F90089542E050E0FD
:1008900062E171E083E291E00C94E502CF92DF9295
:1008A000EF92FF92CF93DF936C01990FEE08FF0850
:1008B000F7FE13C06DE283E291E00E947C03EC013D
:1008C00066277727CB016C197D098E099F094AE0BD
:1008D0000E94F503C80FD91F06C04AE0C701B60140
:1008E0000E94F503EC010E9446048C0F9D1FDF91CE
:1008F000CF91FF90EF90DF90CF9008950E94A809CC
:100900001F920F920FB60F9211242F933F938F9344
:100910009F93AF93BF9380911F0190912001A0916D
:100920002101B091220130911A0123E0230F2D37CC
:1009300020F40196A11DB11D05C026E8230F0296E3
:10094000A11DB11D20931A0180931F0190932001D6
:10095000A0932101B093220180911B0190911C0171
:10096000A0911D01B0911E010196A11DB11D8093A2
:100970001B0190931C01A0931D01B0931E01BF9118
:10098000AF919F918F913F912F910F900FBE0F903C
:100990001F9018951F920F920FB60F9211242F934C
:1009A0003F934F935F936F937F938F939F93AF93F7
:1009B000BF93EF93FF9383E291E00E945A03FF916C
:1009C000EF91BF91AF919F918F917F916F915F91C7
:1009D0004F913F912F910F900FBE0F901F90189540
:1009E0001F920F920FB60F9211242F938F939F9304
:1009F000EF93FF93E0913301F09134018081E09116
:100A00003901F0913A0182FD12C0908180913C0140
:100A10008F5F8F7320913D01821751F0E0913C016F
:100A2000F0E0ED5DFE4F958F80933C0101C0808129
:100A3000FF91EF919F918F912F910F900FBE0F908B
:100A40001F9018951F920F920FB60F9211242F939B
:100A50003F934F935F936F937F938F939F93AF9346
:100A6000BF93EF93FF93E0E0F0E00995FF91EF91E2
:100A7000BF91AF919F918F917F916F915F914F91B6
:100A80003F912F910F900FBE0F901F901895E3E2AA
:100A9000F1E01382128288EE93E0A0E0B0E084835C
:100AA0009583A683B78384E091E09183808385EC6E
:100AB00090E09587848784EC90E09787868780EC28
:100AC00090E0918B808B81EC90E0938B828B82EC19
:100AD00090E0958B848B86EC90E0978B868B118EC3
:100AE000128E138E148EE4EBF0E0E491A3EDB1E0EE
:100AF0001496EC931497E3EBF0E0E4911596EC93E5
:100B0000159780EA90E0FC012491E22FF0E0EE0FCF
:100B1000FF1FE057FF4F2591349117963C932E937A
:100B20001697EFE9F0E0E491F0E0EE0FFF1FEA57CF
:100B3000FF4F2591349119963C932E931897FC0101
:100B40008491E82FF0E0EE0FFF1FE458FF4F8591EE
:100B500094911B969C938E931A978DE89FE61D9611
:100B60009C938E931C97A0ECB1E083E015968C9338
:100B700015978BE016968C931697E1EBF0E0E491D5
:100B80001796EC931797EDE9F0E0E4911896EC9343
:100B9000189740E85EE360E070E01D964D935D932A
:100BA0006D937C9350970895789484B5826084BD4A
:100BB00084B5816084BD85B5826085BD85B5816061
:100BC00085BD80916E00816080936E0010928100DF
:100BD000809181008260809381008091810081609A
:100BE000809381008091800081608093800080915B
:100BF000B10084608093B1008091B00081608093E7
:100C0000B00080917A00846080937A0080917A00AD
:100C1000826080937A0080917A00816080937A006C
:100C200080917A00806880937A001092C10060E021
:100C300087E00E941E0160E084E00E941E0160E0E7
:100C400082E00E941E01E0913301F091340182E0C4
:100C50008083E0912F01F09130011082E091310109
:100C6000F09132018FEC808310923B01E0913701CB
:100C7000F091380186E08083E0913501F0913601F2
:100C8000808180618083E0913501F091360180811F
:100C900088608083E0913501F09136018081806821
:100CA0008083E0913501F091360180818F7D8083D2
:100CB00062E08091C5010E941E012FB7F8948091D7
:100CC0001F0190912001A0912101B09122012FBF1D
:100CD000805D9740A109B1098093C9019093CA0131
:100CE000A093CB01B093CC0187E38093D201CBE0FA
:100CF000D0E003E210E099E3C92ED12CE12CF12CD5
:100D0000E091DD01F091DE0190818091D701892B86
:100D10008083E091D901F091DA0190818091D7012F
:100D2000809589238083CE010197F1F7E091D90165
:100D3000F091DA0190818091D701892B8083C801DD
:100D40000197F1F7E091D901F091DA01908180915A
:100D5000D701809589238083E091DD01F091DE0148
:100D600090818091D701809589238083E091DB0178
:100D7000F091DC0190818091D801892309F01FC195
:100D80000E945A012091DF013091E0014901A12C1C
:100D9000B12C28EA820E26E1921EA11CB11CDC01B6
:100DA000CB01880D991DAA1DBB1D8093E101909375
:100DB000E201A093E301B093E401E091DB01F09143
:100DC000DC0190818091D801892381F40E945A012D
:100DD0008090E1019090E201A090E301B090E401E5
:100DE00086169706A806B90640F7E9C00E945A0180
:100DF0002091DF013091E001DC01CB01820F931FD4
:100E0000A11DB11D8093E1019093E201A093E30144
:100E1000B093E401E091DB01F091DC0190818091DD
:100E2000D801892381F00E945A018090E1019090BD
:100E3000E201A090E301B090E40186169706A806AF
:100E4000B90640F7BCC00E945A012091DF013091E1
:100E5000E001255031094091E1015091E201241B4C
:100E6000350B620F731F80E090E0A70196010E948E
:100E70008009CA01B9014AE00E94F5030E944604B4
:100E800062E370E080E090E00E947F0187E00E94D2
:100E9000F5000E944E0468EC70E080E090E00E9453
:100EA0007F0184E00E94F5000E944E040E94B90177
:100EB000882309F46DC08091C6018C3009F446C0C6
:100EC00018F48B30D1F064C08551823008F060C0D6
:100ED000B090C2016B2D6F7770E0762F66278091FE
:100EE000C301682B80E090E00E9485082DEC3CEC6B
:100EF0004CEC5DE30E94130947C06091C20170E0B1
:100F000080E090E00E9485084B015C017090C30175
:100F100077FE0AC09B01AC0160E070E080E89FEBC7
:100F20000E94E2074B015C01672D6F7070E080E06A
:100F300090E00E9487082DEC3CEC4CEC5DE30E94B5
:100F40001309A50194010E94E30726C0B090C201D5
:100F50006091C3016F7070E080E090E00E948708AC
:100F60002DEC3CEC4CEC5DE30E9413092B013C01A1
:100F70006B2D70E080E090E00E9485089B01AC0141
:100F8000C301B2010E94E307B7FE06C0905804C037
:100F900060E070E080EC9FE70E944F08CB010E9468
:100FA0004E0482E00E94F5000E944E046AEF70E059
:100FB00080E090E00E947F010E94EB03A1CE60E000
:100FC00070E051CF5058BB27AA270E94FA070C9413
:100FD000D9080E94CB0838F00E94D20820F039F4DA
:100FE0009F3F19F426F40C94C8080EF4E095E7FB33
:100FF0000C94C208E92F0E94EA0858F3BA17620756
:1010000073078407950720F079F4A6F50C940C0972
:101010000EF4E0950B2EBA2FA02D0B01B901900113
:101020000C01CA01A0011124FF27591B99F0593F57
:1010300050F4503E68F11A16F040A22F232F342F9F
:101040004427585FF3CF469537952795A795F040ED
:101050005395C9F77EF41F16BA0B620B730B840B02
:10106000BAF09150A1F0FF0FBB1F661F771F881FBA
:10107000C2F70EC0BA0F621F731F841F48F4879512
:1010800077956795B795F7959E3F08F0B0CF939504
:10109000880F08F09927EE0F9795879508950E947D
:1010A00056086894B1110C940D0908950E94F20835
:1010B00088F09F5798F0B92F9927B751B0F0E1F019
:1010C000660F771F881F991F1AF0BA95C9F714C0C9
:1010D000B13091F00E940C09B1E008950C940C0914
:1010E000672F782F8827B85F39F0B93FCCF3869502
:1010F00077956795B395D9F73EF49095809570955F
:1011000061957F4F8F4F9F4F0895E89409C097FBDB
:101110003EF490958095709561957F4F8F4F9F4FCE
:101120009923A9F0F92F96E9BB279395F695879512
:1011300077956795B795F111F8CFFAF4BB0F11F4D5
:1011400060FF1BC06F5F7F4F8F4F9F4F16C088237C
:1011500011F096E911C0772321F09EE8872F762FB2
:1011600005C0662371F096E8862F70E060E02AF0F3
:101170009A95660F771F881FDAF7880F96958795DF
:1011800097F9089597F99F6780E870E060E0089507
:101190009FEF80EC089500240A941616170618068F
:1011A0000906089500240A9412161306140605066B
:1011B0000895092E0394000C11F4882352F0BB0FFC
:1011C00040F4BF2B11F460FF04C06F5F7F4F8F4F5F
:1011D0009F4F089557FD9058440F551F59F05F3F9A
:1011E00071F04795880F97FB991F61F09F3F79F049
:1011F00087950895121613061406551FF2CF4695CB
:10120000F1DF08C0161617061806991FF1CF86954C
:101210007105610508940895E894BB276627772730
:10122000CB0197F908950E9426090C94D9080E94D1
:10123000CB0838F00E94D20820F0952311F00C94CE
:10124000C2080C94C80811240C940D090E94EA08E5
:1012500070F3959FC1F3950F50E0551F629FF00109
:10126000729FBB27F00DB11D639FAA27F00DB11D22
:10127000AA1F649F6627B00DA11D661F829F2227AB
:10128000B00DA11D621F739FB00DA11D621F839F32
:10129000A00D611D221F749F3327A00D611D231F08
:1012A000849F600D211D822F762F6A2F11249F5756
:1012B00050409AF0F1F088234AF0EE0FFF1FBB1F59
:1012C000661F771F881F91505040A9F79E3F510518
:1012D00080F00C94C2080C940D095F3FE4F3983E33
:1012E000D4F3869577956795B795F795E7959F5FC2
:1012F000C1F7FE2B880F911D9695879597F9089554
:10130000A1E21A2EAA1BBB1BFD010DC0AA1FBB1F09
:10131000EE1FFF1FA217B307E407F50720F0A21B7B
:10132000B30BE40BF50B661F771F881F991F1A94E8
:1013300069F760957095809590959B01AC01BD0112
:10134000CF010895EE0FFF1F0590F491E02D099451
:0E13500081E090E0F8940C94AD09F894FFCF82
:10135E00000000007C03E5021303C90344032203CB
:06136E0036030D0A000029
:00000001FF
